{
	"contracts/Users.sol": {
		"UserContract": {
			"abi": [
				{
					"inputs": [
						{
							"internalType": "string",
							"name": "name",
							"type": "string"
						}
					],
					"name": "create",
					"outputs": [],
					"stateMutability": "nonpayable",
					"type": "function"
				},
				{
					"inputs": [
						{
							"internalType": "uint256",
							"name": "id",
							"type": "uint256"
						}
					],
					"name": "destroy",
					"outputs": [],
					"stateMutability": "nonpayable",
					"type": "function"
				},
				{
					"inputs": [],
					"name": "nextId",
					"outputs": [
						{
							"internalType": "uint256",
							"name": "",
							"type": "uint256"
						}
					],
					"stateMutability": "view",
					"type": "function"
				},
				{
					"inputs": [
						{
							"internalType": "uint256",
							"name": "id",
							"type": "uint256"
						}
					],
					"name": "read",
					"outputs": [
						{
							"internalType": "uint256",
							"name": "",
							"type": "uint256"
						},
						{
							"internalType": "string",
							"name": "",
							"type": "string"
						}
					],
					"stateMutability": "view",
					"type": "function"
				},
				{
					"inputs": [
						{
							"internalType": "uint256",
							"name": "id",
							"type": "uint256"
						},
						{
							"internalType": "string",
							"name": "name",
							"type": "string"
						}
					],
					"name": "update",
					"outputs": [],
					"stateMutability": "nonpayable",
					"type": "function"
				},
				{
					"inputs": [
						{
							"internalType": "uint256",
							"name": "",
							"type": "uint256"
						}
					],
					"name": "users",
					"outputs": [
						{
							"internalType": "uint256",
							"name": "id",
							"type": "uint256"
						},
						{
							"internalType": "string",
							"name": "name",
							"type": "string"
						}
					],
					"stateMutability": "view",
					"type": "function"
				}
			],
			"devdoc": {
				"kind": "dev",
				"methods": {},
				"version": 1
			},
			"evm": {
				"assembly": "    /* \"contracts/Users.sol\":57:878  contract UserContract {... */\n  mstore(0x40, 0x80)\n  callvalue\n  dup1\n  iszero\n  tag_1\n  jumpi\n  0x00\n  dup1\n  revert\ntag_1:\n  pop\n  dataSize(sub_0)\n  dup1\n  dataOffset(sub_0)\n  0x00\n  codecopy\n  0x00\n  return\nstop\n\nsub_0: assembly {\n        /* \"contracts/Users.sol\":57:878  contract UserContract {... */\n      mstore(0x40, 0x80)\n      callvalue\n      dup1\n      iszero\n      tag_1\n      jumpi\n      0x00\n      dup1\n      revert\n    tag_1:\n      pop\n      jumpi(tag_2, lt(calldatasize, 0x04))\n      shr(0xe0, calldataload(0x00))\n      dup1\n      0x365b98b2\n      eq\n      tag_3\n      jumpi\n      dup1\n      0x61b8ce8c\n      eq\n      tag_4\n      jumpi\n      dup1\n      0x9d118770\n      eq\n      tag_5\n      jumpi\n      dup1\n      0xb6a46b3b\n      eq\n      tag_6\n      jumpi\n      dup1\n      0xed2e5a97\n      eq\n      tag_7\n      jumpi\n      dup1\n      0xf745630f\n      eq\n      tag_8\n      jumpi\n    tag_2:\n      0x00\n      dup1\n      revert\n        /* \"contracts/Users.sol\":147:166  User[] public users */\n    tag_3:\n      tag_9\n      0x04\n      dup1\n      calldatasize\n      sub\n      dup2\n      add\n      swap1\n      tag_10\n      swap2\n      swap1\n      tag_11\n      jump\t// in\n    tag_10:\n      tag_12\n      jump\t// in\n    tag_9:\n      mload(0x40)\n      tag_13\n      swap3\n      swap2\n      swap1\n      tag_14\n      jump\t// in\n    tag_13:\n      mload(0x40)\n      dup1\n      swap2\n      sub\n      swap1\n      return\n        /* \"contracts/Users.sol\":172:190  uint public nextId */\n    tag_4:\n      tag_15\n      tag_16\n      jump\t// in\n    tag_15:\n      mload(0x40)\n      tag_17\n      swap2\n      swap1\n      tag_18\n      jump\t// in\n    tag_17:\n      mload(0x40)\n      dup1\n      swap2\n      sub\n      swap1\n      return\n        /* \"contracts/Users.sol\":582:674  function destroy(uint id) public {... */\n    tag_5:\n      tag_19\n      0x04\n      dup1\n      calldatasize\n      sub\n      dup2\n      add\n      swap1\n      tag_20\n      swap2\n      swap1\n      tag_11\n      jump\t// in\n    tag_20:\n      tag_21\n      jump\t// in\n    tag_19:\n      stop\n        /* \"contracts/Users.sol\":197:305  function create(string memory name) public {... */\n    tag_6:\n      tag_22\n      0x04\n      dup1\n      calldatasize\n      sub\n      dup2\n      add\n      swap1\n      tag_23\n      swap2\n      swap1\n      tag_24\n      jump\t// in\n    tag_23:\n      tag_25\n      jump\t// in\n    tag_22:\n      stop\n        /* \"contracts/Users.sol\":311:454  function read(uint id) view public returns(uint, string memory) {... */\n    tag_7:\n      tag_26\n      0x04\n      dup1\n      calldatasize\n      sub\n      dup2\n      add\n      swap1\n      tag_27\n      swap2\n      swap1\n      tag_11\n      jump\t// in\n    tag_27:\n      tag_28\n      jump\t// in\n    tag_26:\n      mload(0x40)\n      tag_29\n      swap3\n      swap2\n      swap1\n      tag_14\n      jump\t// in\n    tag_29:\n      mload(0x40)\n      dup1\n      swap2\n      sub\n      swap1\n      return\n        /* \"contracts/Users.sol\":460:576  function update(uint id, string memory name) public {... */\n    tag_8:\n      tag_30\n      0x04\n      dup1\n      calldatasize\n      sub\n      dup2\n      add\n      swap1\n      tag_31\n      swap2\n      swap1\n      tag_32\n      jump\t// in\n    tag_31:\n      tag_33\n      jump\t// in\n    tag_30:\n      stop\n        /* \"contracts/Users.sol\":147:166  User[] public users */\n    tag_12:\n      0x00\n      dup2\n      dup2\n      sload\n      dup2\n      lt\n      tag_34\n      jumpi\n      0x00\n      dup1\n      revert\n    tag_34:\n      swap1\n      0x00\n      mstore\n      keccak256(0x00, 0x20)\n      swap1\n      0x02\n      mul\n      add\n      0x00\n      swap2\n      pop\n      swap1\n      pop\n      dup1\n      0x00\n      add\n      sload\n      swap1\n      dup1\n      0x01\n      add\n      dup1\n      sload\n      tag_36\n      swap1\n      tag_37\n      jump\t// in\n    tag_36:\n      dup1\n      0x1f\n      add\n      0x20\n      dup1\n      swap2\n      div\n      mul\n      0x20\n      add\n      mload(0x40)\n      swap1\n      dup2\n      add\n      0x40\n      mstore\n      dup1\n      swap3\n      swap2\n      swap1\n      dup2\n      dup2\n      mstore\n      0x20\n      add\n      dup3\n      dup1\n      sload\n      tag_38\n      swap1\n      tag_37\n      jump\t// in\n    tag_38:\n      dup1\n      iszero\n      tag_39\n      jumpi\n      dup1\n      0x1f\n      lt\n      tag_40\n      jumpi\n      0x0100\n      dup1\n      dup4\n      sload\n      div\n      mul\n      dup4\n      mstore\n      swap2\n      0x20\n      add\n      swap2\n      jump(tag_39)\n    tag_40:\n      dup3\n      add\n      swap2\n      swap1\n      0x00\n      mstore\n      keccak256(0x00, 0x20)\n      swap1\n    tag_41:\n      dup2\n      sload\n      dup2\n      mstore\n      swap1\n      0x01\n      add\n      swap1\n      0x20\n      add\n      dup1\n      dup4\n      gt\n      tag_41\n      jumpi\n      dup3\n      swap1\n      sub\n      0x1f\n      and\n      dup3\n      add\n      swap2\n    tag_39:\n      pop\n      pop\n      pop\n      pop\n      pop\n      swap1\n      pop\n      dup3\n      jump\t// out\n        /* \"contracts/Users.sol\":172:190  uint public nextId */\n    tag_16:\n      sload(0x01)\n      dup2\n      jump\t// out\n        /* \"contracts/Users.sol\":582:674  function destroy(uint id) public {... */\n    tag_21:\n        /* \"contracts/Users.sol\":625:631  uint i */\n      0x00\n        /* \"contracts/Users.sol\":634:642  find(id) */\n      tag_43\n        /* \"contracts/Users.sol\":639:641  id */\n      dup3\n        /* \"contracts/Users.sol\":634:638  find */\n      tag_44\n        /* \"contracts/Users.sol\":634:642  find(id) */\n      jump\t// in\n    tag_43:\n        /* \"contracts/Users.sol\":625:642  uint i = find(id) */\n      swap1\n      pop\n        /* \"contracts/Users.sol\":659:664  users */\n      0x00\n        /* \"contracts/Users.sol\":665:666  i */\n      dup2\n        /* \"contracts/Users.sol\":659:667  users[i] */\n      dup2\n      sload\n      dup2\n      lt\n      tag_45\n      jumpi\n      tag_46\n      tag_47\n      jump\t// in\n    tag_46:\n    tag_45:\n      swap1\n      0x00\n      mstore\n      keccak256(0x00, 0x20)\n      swap1\n      0x02\n      mul\n      add\n      0x00\n        /* \"contracts/Users.sol\":652:667  delete users[i] */\n      dup1\n      dup3\n      add\n      0x00\n      swap1\n      sstore\n      0x01\n      dup3\n      add\n      0x00\n      tag_49\n      swap2\n      swap1\n      tag_50\n      jump\t// in\n    tag_49:\n      pop\n      pop\n        /* \"contracts/Users.sol\":615:674  {... */\n      pop\n        /* \"contracts/Users.sol\":582:674  function destroy(uint id) public {... */\n      pop\n      jump\t// out\n        /* \"contracts/Users.sol\":197:305  function create(string memory name) public {... */\n    tag_25:\n        /* \"contracts/Users.sol\":250:255  users */\n      0x00\n        /* \"contracts/Users.sol\":261:279  User(nextId, name) */\n      mload(0x40)\n      dup1\n      0x40\n      add\n      0x40\n      mstore\n      dup1\n        /* \"contracts/Users.sol\":266:272  nextId */\n      sload(0x01)\n        /* \"contracts/Users.sol\":261:279  User(nextId, name) */\n      dup2\n      mstore\n      0x20\n      add\n        /* \"contracts/Users.sol\":274:278  name */\n      dup4\n        /* \"contracts/Users.sol\":261:279  User(nextId, name) */\n      dup2\n      mstore\n      pop\n        /* \"contracts/Users.sol\":250:280  users.push(User(nextId, name)) */\n      swap1\n      dup1\n      0x01\n      dup2\n      sload\n      add\n      dup1\n      dup3\n      sstore\n      dup1\n      swap2\n      pop\n      pop\n      0x01\n      swap1\n      sub\n      swap1\n      0x00\n      mstore\n      keccak256(0x00, 0x20)\n      swap1\n      0x02\n      mul\n      add\n      0x00\n      swap1\n      swap2\n      swap1\n      swap2\n      swap1\n      swap2\n      pop\n      0x00\n      dup3\n      add\n      mload\n      dup2\n      0x00\n      add\n      sstore\n      0x20\n      dup3\n      add\n      mload\n      dup2\n      0x01\n      add\n      swap1\n      dup1\n      mload\n      swap1\n      0x20\n      add\n      swap1\n      tag_53\n      swap3\n      swap2\n      swap1\n      tag_54\n      jump\t// in\n    tag_53:\n      pop\n      pop\n      pop\n        /* \"contracts/Users.sol\":290:296  nextId */\n      0x01\n      0x00\n        /* \"contracts/Users.sol\":290:298  nextId++ */\n      dup2\n      sload\n      dup1\n      swap3\n      swap2\n      swap1\n      tag_55\n      swap1\n      tag_56\n      jump\t// in\n    tag_55:\n      swap2\n      swap1\n      pop\n      sstore\n      pop\n        /* \"contracts/Users.sol\":197:305  function create(string memory name) public {... */\n      pop\n      jump\t// out\n        /* \"contracts/Users.sol\":311:454  function read(uint id) view public returns(uint, string memory) {... */\n    tag_28:\n        /* \"contracts/Users.sol\":354:358  uint */\n      0x00\n        /* \"contracts/Users.sol\":360:373  string memory */\n      0x60\n        /* \"contracts/Users.sol\":385:391  uint i */\n      0x00\n        /* \"contracts/Users.sol\":394:402  find(id) */\n      tag_58\n        /* \"contracts/Users.sol\":399:401  id */\n      dup5\n        /* \"contracts/Users.sol\":394:398  find */\n      tag_44\n        /* \"contracts/Users.sol\":394:402  find(id) */\n      jump\t// in\n    tag_58:\n        /* \"contracts/Users.sol\":385:402  uint i = find(id) */\n      swap1\n      pop\n        /* \"contracts/Users.sol\":420:425  users */\n      0x00\n        /* \"contracts/Users.sol\":426:427  i */\n      dup2\n        /* \"contracts/Users.sol\":420:428  users[i] */\n      dup2\n      sload\n      dup2\n      lt\n      tag_59\n      jumpi\n      tag_60\n      tag_47\n      jump\t// in\n    tag_60:\n    tag_59:\n      swap1\n      0x00\n      mstore\n      keccak256(0x00, 0x20)\n      swap1\n      0x02\n      mul\n      add\n        /* \"contracts/Users.sol\":420:431  users[i].id */\n      0x00\n      add\n      sload\n        /* \"contracts/Users.sol\":433:438  users */\n      0x00\n        /* \"contracts/Users.sol\":439:440  i */\n      dup3\n        /* \"contracts/Users.sol\":433:441  users[i] */\n      dup2\n      sload\n      dup2\n      lt\n      tag_62\n      jumpi\n      tag_63\n      tag_47\n      jump\t// in\n    tag_63:\n    tag_62:\n      swap1\n      0x00\n      mstore\n      keccak256(0x00, 0x20)\n      swap1\n      0x02\n      mul\n      add\n        /* \"contracts/Users.sol\":433:446  users[i].name */\n      0x01\n      add\n        /* \"contracts/Users.sol\":412:447  return (users[i].id, users[i].name) */\n      dup1\n      dup1\n      sload\n      tag_65\n      swap1\n      tag_37\n      jump\t// in\n    tag_65:\n      dup1\n      0x1f\n      add\n      0x20\n      dup1\n      swap2\n      div\n      mul\n      0x20\n      add\n      mload(0x40)\n      swap1\n      dup2\n      add\n      0x40\n      mstore\n      dup1\n      swap3\n      swap2\n      swap1\n      dup2\n      dup2\n      mstore\n      0x20\n      add\n      dup3\n      dup1\n      sload\n      tag_66\n      swap1\n      tag_37\n      jump\t// in\n    tag_66:\n      dup1\n      iszero\n      tag_67\n      jumpi\n      dup1\n      0x1f\n      lt\n      tag_68\n      jumpi\n      0x0100\n      dup1\n      dup4\n      sload\n      div\n      mul\n      dup4\n      mstore\n      swap2\n      0x20\n      add\n      swap2\n      jump(tag_67)\n    tag_68:\n      dup3\n      add\n      swap2\n      swap1\n      0x00\n      mstore\n      keccak256(0x00, 0x20)\n      swap1\n    tag_69:\n      dup2\n      sload\n      dup2\n      mstore\n      swap1\n      0x01\n      add\n      swap1\n      0x20\n      add\n      dup1\n      dup4\n      gt\n      tag_69\n      jumpi\n      dup3\n      swap1\n      sub\n      0x1f\n      and\n      dup3\n      add\n      swap2\n    tag_67:\n      pop\n      pop\n      pop\n      pop\n      pop\n      swap1\n      pop\n      swap3\n      pop\n      swap3\n      pop\n      pop\n        /* \"contracts/Users.sol\":311:454  function read(uint id) view public returns(uint, string memory) {... */\n      swap2\n      pop\n      swap2\n      jump\t// out\n        /* \"contracts/Users.sol\":460:576  function update(uint id, string memory name) public {... */\n    tag_33:\n        /* \"contracts/Users.sol\":522:528  uint i */\n      0x00\n        /* \"contracts/Users.sol\":531:539  find(id) */\n      tag_71\n        /* \"contracts/Users.sol\":536:538  id */\n      dup4\n        /* \"contracts/Users.sol\":531:535  find */\n      tag_44\n        /* \"contracts/Users.sol\":531:539  find(id) */\n      jump\t// in\n    tag_71:\n        /* \"contracts/Users.sol\":522:539  uint i = find(id) */\n      swap1\n      pop\n        /* \"contracts/Users.sol\":565:569  name */\n      dup2\n        /* \"contracts/Users.sol\":549:554  users */\n      0x00\n        /* \"contracts/Users.sol\":555:556  i */\n      dup3\n        /* \"contracts/Users.sol\":549:557  users[i] */\n      dup2\n      sload\n      dup2\n      lt\n      tag_72\n      jumpi\n      tag_73\n      tag_47\n      jump\t// in\n    tag_73:\n    tag_72:\n      swap1\n      0x00\n      mstore\n      keccak256(0x00, 0x20)\n      swap1\n      0x02\n      mul\n      add\n        /* \"contracts/Users.sol\":549:562  users[i].name */\n      0x01\n      add\n        /* \"contracts/Users.sol\":549:569  users[i].name = name */\n      swap1\n      dup1\n      mload\n      swap1\n      0x20\n      add\n      swap1\n      tag_75\n      swap3\n      swap2\n      swap1\n      tag_54\n      jump\t// in\n    tag_75:\n      pop\n        /* \"contracts/Users.sol\":512:576  {... */\n      pop\n        /* \"contracts/Users.sol\":460:576  function update(uint id, string memory name) public {... */\n      pop\n      pop\n      jump\t// out\n        /* \"contracts/Users.sol\":680:873  function find(uint id) view internal returns(uint) {... */\n    tag_44:\n        /* \"contracts/Users.sol\":725:729  uint */\n      0x00\n        /* \"contracts/Users.sol\":745:751  uint i */\n      dup1\n        /* \"contracts/Users.sol\":754:755  0 */\n      0x00\n        /* \"contracts/Users.sol\":745:755  uint i = 0 */\n      swap1\n      pop\n        /* \"contracts/Users.sol\":741:867  for(uint i = 0; i < users.length; i++) {... */\n    tag_77:\n        /* \"contracts/Users.sol\":761:766  users */\n      0x00\n        /* \"contracts/Users.sol\":761:773  users.length */\n      dup1\n      sload\n      swap1\n      pop\n        /* \"contracts/Users.sol\":757:758  i */\n      dup2\n        /* \"contracts/Users.sol\":757:773  i < users.length */\n      lt\n        /* \"contracts/Users.sol\":741:867  for(uint i = 0; i < users.length; i++) {... */\n      iszero\n      tag_78\n      jumpi\n        /* \"contracts/Users.sol\":812:814  id */\n      dup3\n        /* \"contracts/Users.sol\":797:802  users */\n      0x00\n        /* \"contracts/Users.sol\":803:804  i */\n      dup3\n        /* \"contracts/Users.sol\":797:805  users[i] */\n      dup2\n      sload\n      dup2\n      lt\n      tag_80\n      jumpi\n      tag_81\n      tag_47\n      jump\t// in\n    tag_81:\n    tag_80:\n      swap1\n      0x00\n      mstore\n      keccak256(0x00, 0x20)\n      swap1\n      0x02\n      mul\n      add\n        /* \"contracts/Users.sol\":797:808  users[i].id */\n      0x00\n      add\n      sload\n        /* \"contracts/Users.sol\":797:814  users[i].id == id */\n      eq\n        /* \"contracts/Users.sol\":794:857  if(users[i].id == id) {... */\n      iszero\n      tag_83\n      jumpi\n        /* \"contracts/Users.sol\":841:842  i */\n      dup1\n        /* \"contracts/Users.sol\":834:842  return i */\n      swap2\n      pop\n      pop\n      jump(tag_76)\n        /* \"contracts/Users.sol\":794:857  if(users[i].id == id) {... */\n    tag_83:\n        /* \"contracts/Users.sol\":775:778  i++ */\n      dup1\n      dup1\n      tag_84\n      swap1\n      tag_56\n      jump\t// in\n    tag_84:\n      swap2\n      pop\n      pop\n        /* \"contracts/Users.sol\":741:867  for(uint i = 0; i < users.length; i++) {... */\n      jump(tag_77)\n    tag_78:\n      pop\n        /* \"contracts/Users.sol\":680:873  function find(uint id) view internal returns(uint) {... */\n    tag_76:\n      swap2\n      swap1\n      pop\n      jump\t// out\n    tag_50:\n      pop\n      dup1\n      sload\n      tag_85\n      swap1\n      tag_37\n      jump\t// in\n    tag_85:\n      0x00\n      dup3\n      sstore\n      dup1\n      0x1f\n      lt\n      tag_87\n      jumpi\n      pop\n      jump(tag_86)\n    tag_87:\n      0x1f\n      add\n      0x20\n      swap1\n      div\n      swap1\n      0x00\n      mstore\n      keccak256(0x00, 0x20)\n      swap1\n      dup2\n      add\n      swap1\n      tag_88\n      swap2\n      swap1\n      tag_89\n      jump\t// in\n    tag_88:\n    tag_86:\n      pop\n      jump\t// out\n    tag_54:\n      dup3\n      dup1\n      sload\n      tag_90\n      swap1\n      tag_37\n      jump\t// in\n    tag_90:\n      swap1\n      0x00\n      mstore\n      keccak256(0x00, 0x20)\n      swap1\n      0x1f\n      add\n      0x20\n      swap1\n      div\n      dup2\n      add\n      swap3\n      dup3\n      tag_92\n      jumpi\n      0x00\n      dup6\n      sstore\n      jump(tag_91)\n    tag_92:\n      dup3\n      0x1f\n      lt\n      tag_93\n      jumpi\n      dup1\n      mload\n      not(0xff)\n      and\n      dup4\n      dup1\n      add\n      or\n      dup6\n      sstore\n      jump(tag_91)\n    tag_93:\n      dup3\n      dup1\n      add\n      0x01\n      add\n      dup6\n      sstore\n      dup3\n      iszero\n      tag_91\n      jumpi\n      swap2\n      dup3\n      add\n    tag_94:\n      dup3\n      dup2\n      gt\n      iszero\n      tag_95\n      jumpi\n      dup3\n      mload\n      dup3\n      sstore\n      swap2\n      0x20\n      add\n      swap2\n      swap1\n      0x01\n      add\n      swap1\n      jump(tag_94)\n    tag_95:\n    tag_91:\n      pop\n      swap1\n      pop\n      tag_96\n      swap2\n      swap1\n      tag_89\n      jump\t// in\n    tag_96:\n      pop\n      swap1\n      jump\t// out\n    tag_89:\n    tag_97:\n      dup1\n      dup3\n      gt\n      iszero\n      tag_98\n      jumpi\n      0x00\n      dup2\n      0x00\n      swap1\n      sstore\n      pop\n      0x01\n      add\n      jump(tag_97)\n    tag_98:\n      pop\n      swap1\n      jump\t// out\n        /* \"#utility.yul\":7:419   */\n    tag_100:\n        /* \"#utility.yul\":85:90   */\n      0x00\n        /* \"#utility.yul\":110:176   */\n      tag_102\n        /* \"#utility.yul\":126:175   */\n      tag_103\n        /* \"#utility.yul\":168:174   */\n      dup5\n        /* \"#utility.yul\":126:175   */\n      tag_104\n      jump\t// in\n    tag_103:\n        /* \"#utility.yul\":110:176   */\n      tag_105\n      jump\t// in\n    tag_102:\n        /* \"#utility.yul\":101:176   */\n      swap1\n      pop\n        /* \"#utility.yul\":199:205   */\n      dup3\n        /* \"#utility.yul\":192:197   */\n      dup2\n        /* \"#utility.yul\":185:206   */\n      mstore\n        /* \"#utility.yul\":237:241   */\n      0x20\n        /* \"#utility.yul\":230:235   */\n      dup2\n        /* \"#utility.yul\":226:242   */\n      add\n        /* \"#utility.yul\":275:278   */\n      dup5\n        /* \"#utility.yul\":266:272   */\n      dup5\n        /* \"#utility.yul\":261:264   */\n      dup5\n        /* \"#utility.yul\":257:273   */\n      add\n        /* \"#utility.yul\":254:279   */\n      gt\n        /* \"#utility.yul\":251:363   */\n      iszero\n      tag_106\n      jumpi\n        /* \"#utility.yul\":282:361   */\n      tag_107\n      tag_108\n      jump\t// in\n    tag_107:\n        /* \"#utility.yul\":251:363   */\n    tag_106:\n        /* \"#utility.yul\":372:413   */\n      tag_109\n        /* \"#utility.yul\":406:412   */\n      dup5\n        /* \"#utility.yul\":401:404   */\n      dup3\n        /* \"#utility.yul\":396:399   */\n      dup6\n        /* \"#utility.yul\":372:413   */\n      tag_110\n      jump\t// in\n    tag_109:\n        /* \"#utility.yul\":91:419   */\n      pop\n        /* \"#utility.yul\":7:419   */\n      swap4\n      swap3\n      pop\n      pop\n      pop\n      jump\t// out\n        /* \"#utility.yul\":439:779   */\n    tag_111:\n        /* \"#utility.yul\":495:500   */\n      0x00\n        /* \"#utility.yul\":544:547   */\n      dup3\n        /* \"#utility.yul\":537:541   */\n      0x1f\n        /* \"#utility.yul\":529:535   */\n      dup4\n        /* \"#utility.yul\":525:542   */\n      add\n        /* \"#utility.yul\":521:548   */\n      slt\n        /* \"#utility.yul\":511:633   */\n      tag_113\n      jumpi\n        /* \"#utility.yul\":552:631   */\n      tag_114\n      tag_115\n      jump\t// in\n    tag_114:\n        /* \"#utility.yul\":511:633   */\n    tag_113:\n        /* \"#utility.yul\":669:675   */\n      dup2\n        /* \"#utility.yul\":656:676   */\n      calldataload\n        /* \"#utility.yul\":694:773   */\n      tag_116\n        /* \"#utility.yul\":769:772   */\n      dup5\n        /* \"#utility.yul\":761:767   */\n      dup3\n        /* \"#utility.yul\":754:758   */\n      0x20\n        /* \"#utility.yul\":746:752   */\n      dup7\n        /* \"#utility.yul\":742:759   */\n      add\n        /* \"#utility.yul\":694:773   */\n      tag_100\n      jump\t// in\n    tag_116:\n        /* \"#utility.yul\":685:773   */\n      swap2\n      pop\n        /* \"#utility.yul\":501:779   */\n      pop\n        /* \"#utility.yul\":439:779   */\n      swap3\n      swap2\n      pop\n      pop\n      jump\t// out\n        /* \"#utility.yul\":785:924   */\n    tag_117:\n        /* \"#utility.yul\":831:836   */\n      0x00\n        /* \"#utility.yul\":869:875   */\n      dup2\n        /* \"#utility.yul\":856:876   */\n      calldataload\n        /* \"#utility.yul\":847:876   */\n      swap1\n      pop\n        /* \"#utility.yul\":885:918   */\n      tag_119\n        /* \"#utility.yul\":912:917   */\n      dup2\n        /* \"#utility.yul\":885:918   */\n      tag_120\n      jump\t// in\n    tag_119:\n        /* \"#utility.yul\":785:924   */\n      swap3\n      swap2\n      pop\n      pop\n      jump\t// out\n        /* \"#utility.yul\":930:1439   */\n    tag_24:\n        /* \"#utility.yul\":999:1005   */\n      0x00\n        /* \"#utility.yul\":1048:1050   */\n      0x20\n        /* \"#utility.yul\":1036:1045   */\n      dup3\n        /* \"#utility.yul\":1027:1034   */\n      dup5\n        /* \"#utility.yul\":1023:1046   */\n      sub\n        /* \"#utility.yul\":1019:1051   */\n      slt\n        /* \"#utility.yul\":1016:1135   */\n      iszero\n      tag_122\n      jumpi\n        /* \"#utility.yul\":1054:1133   */\n      tag_123\n      tag_124\n      jump\t// in\n    tag_123:\n        /* \"#utility.yul\":1016:1135   */\n    tag_122:\n        /* \"#utility.yul\":1202:1203   */\n      0x00\n        /* \"#utility.yul\":1191:1200   */\n      dup3\n        /* \"#utility.yul\":1187:1204   */\n      add\n        /* \"#utility.yul\":1174:1205   */\n      calldataload\n        /* \"#utility.yul\":1232:1250   */\n      0xffffffffffffffff\n        /* \"#utility.yul\":1224:1230   */\n      dup2\n        /* \"#utility.yul\":1221:1251   */\n      gt\n        /* \"#utility.yul\":1218:1335   */\n      iszero\n      tag_125\n      jumpi\n        /* \"#utility.yul\":1254:1333   */\n      tag_126\n      tag_127\n      jump\t// in\n    tag_126:\n        /* \"#utility.yul\":1218:1335   */\n    tag_125:\n        /* \"#utility.yul\":1359:1422   */\n      tag_128\n        /* \"#utility.yul\":1414:1421   */\n      dup5\n        /* \"#utility.yul\":1405:1411   */\n      dup3\n        /* \"#utility.yul\":1394:1403   */\n      dup6\n        /* \"#utility.yul\":1390:1412   */\n      add\n        /* \"#utility.yul\":1359:1422   */\n      tag_111\n      jump\t// in\n    tag_128:\n        /* \"#utility.yul\":1349:1422   */\n      swap2\n      pop\n        /* \"#utility.yul\":1145:1432   */\n      pop\n        /* \"#utility.yul\":930:1439   */\n      swap3\n      swap2\n      pop\n      pop\n      jump\t// out\n        /* \"#utility.yul\":1445:1774   */\n    tag_11:\n        /* \"#utility.yul\":1504:1510   */\n      0x00\n        /* \"#utility.yul\":1553:1555   */\n      0x20\n        /* \"#utility.yul\":1541:1550   */\n      dup3\n        /* \"#utility.yul\":1532:1539   */\n      dup5\n        /* \"#utility.yul\":1528:1551   */\n      sub\n        /* \"#utility.yul\":1524:1556   */\n      slt\n        /* \"#utility.yul\":1521:1640   */\n      iszero\n      tag_130\n      jumpi\n        /* \"#utility.yul\":1559:1638   */\n      tag_131\n      tag_124\n      jump\t// in\n    tag_131:\n        /* \"#utility.yul\":1521:1640   */\n    tag_130:\n        /* \"#utility.yul\":1679:1680   */\n      0x00\n        /* \"#utility.yul\":1704:1757   */\n      tag_132\n        /* \"#utility.yul\":1749:1756   */\n      dup5\n        /* \"#utility.yul\":1740:1746   */\n      dup3\n        /* \"#utility.yul\":1729:1738   */\n      dup6\n        /* \"#utility.yul\":1725:1747   */\n      add\n        /* \"#utility.yul\":1704:1757   */\n      tag_117\n      jump\t// in\n    tag_132:\n        /* \"#utility.yul\":1694:1757   */\n      swap2\n      pop\n        /* \"#utility.yul\":1650:1767   */\n      pop\n        /* \"#utility.yul\":1445:1774   */\n      swap3\n      swap2\n      pop\n      pop\n      jump\t// out\n        /* \"#utility.yul\":1780:2434   */\n    tag_32:\n        /* \"#utility.yul\":1858:1864   */\n      0x00\n        /* \"#utility.yul\":1866:1872   */\n      dup1\n        /* \"#utility.yul\":1915:1917   */\n      0x40\n        /* \"#utility.yul\":1903:1912   */\n      dup4\n        /* \"#utility.yul\":1894:1901   */\n      dup6\n        /* \"#utility.yul\":1890:1913   */\n      sub\n        /* \"#utility.yul\":1886:1918   */\n      slt\n        /* \"#utility.yul\":1883:2002   */\n      iszero\n      tag_134\n      jumpi\n        /* \"#utility.yul\":1921:2000   */\n      tag_135\n      tag_124\n      jump\t// in\n    tag_135:\n        /* \"#utility.yul\":1883:2002   */\n    tag_134:\n        /* \"#utility.yul\":2041:2042   */\n      0x00\n        /* \"#utility.yul\":2066:2119   */\n      tag_136\n        /* \"#utility.yul\":2111:2118   */\n      dup6\n        /* \"#utility.yul\":2102:2108   */\n      dup3\n        /* \"#utility.yul\":2091:2100   */\n      dup7\n        /* \"#utility.yul\":2087:2109   */\n      add\n        /* \"#utility.yul\":2066:2119   */\n      tag_117\n      jump\t// in\n    tag_136:\n        /* \"#utility.yul\":2056:2119   */\n      swap3\n      pop\n        /* \"#utility.yul\":2012:2129   */\n      pop\n        /* \"#utility.yul\":2196:2198   */\n      0x20\n        /* \"#utility.yul\":2185:2194   */\n      dup4\n        /* \"#utility.yul\":2181:2199   */\n      add\n        /* \"#utility.yul\":2168:2200   */\n      calldataload\n        /* \"#utility.yul\":2227:2245   */\n      0xffffffffffffffff\n        /* \"#utility.yul\":2219:2225   */\n      dup2\n        /* \"#utility.yul\":2216:2246   */\n      gt\n        /* \"#utility.yul\":2213:2330   */\n      iszero\n      tag_137\n      jumpi\n        /* \"#utility.yul\":2249:2328   */\n      tag_138\n      tag_127\n      jump\t// in\n    tag_138:\n        /* \"#utility.yul\":2213:2330   */\n    tag_137:\n        /* \"#utility.yul\":2354:2417   */\n      tag_139\n        /* \"#utility.yul\":2409:2416   */\n      dup6\n        /* \"#utility.yul\":2400:2406   */\n      dup3\n        /* \"#utility.yul\":2389:2398   */\n      dup7\n        /* \"#utility.yul\":2385:2407   */\n      add\n        /* \"#utility.yul\":2354:2417   */\n      tag_111\n      jump\t// in\n    tag_139:\n        /* \"#utility.yul\":2344:2417   */\n      swap2\n      pop\n        /* \"#utility.yul\":2139:2427   */\n      pop\n        /* \"#utility.yul\":1780:2434   */\n      swap3\n      pop\n      swap3\n      swap1\n      pop\n      jump\t// out\n        /* \"#utility.yul\":2440:2804   */\n    tag_140:\n        /* \"#utility.yul\":2528:2531   */\n      0x00\n        /* \"#utility.yul\":2556:2595   */\n      tag_142\n        /* \"#utility.yul\":2589:2594   */\n      dup3\n        /* \"#utility.yul\":2556:2595   */\n      tag_143\n      jump\t// in\n    tag_142:\n        /* \"#utility.yul\":2611:2682   */\n      tag_144\n        /* \"#utility.yul\":2675:2681   */\n      dup2\n        /* \"#utility.yul\":2670:2673   */\n      dup6\n        /* \"#utility.yul\":2611:2682   */\n      tag_145\n      jump\t// in\n    tag_144:\n        /* \"#utility.yul\":2604:2682   */\n      swap4\n      pop\n        /* \"#utility.yul\":2691:2743   */\n      tag_146\n        /* \"#utility.yul\":2736:2742   */\n      dup2\n        /* \"#utility.yul\":2731:2734   */\n      dup6\n        /* \"#utility.yul\":2724:2728   */\n      0x20\n        /* \"#utility.yul\":2717:2722   */\n      dup7\n        /* \"#utility.yul\":2713:2729   */\n      add\n        /* \"#utility.yul\":2691:2743   */\n      tag_147\n      jump\t// in\n    tag_146:\n        /* \"#utility.yul\":2768:2797   */\n      tag_148\n        /* \"#utility.yul\":2790:2796   */\n      dup2\n        /* \"#utility.yul\":2768:2797   */\n      tag_149\n      jump\t// in\n    tag_148:\n        /* \"#utility.yul\":2763:2766   */\n      dup5\n        /* \"#utility.yul\":2759:2798   */\n      add\n        /* \"#utility.yul\":2752:2798   */\n      swap2\n      pop\n        /* \"#utility.yul\":2532:2804   */\n      pop\n        /* \"#utility.yul\":2440:2804   */\n      swap3\n      swap2\n      pop\n      pop\n      jump\t// out\n        /* \"#utility.yul\":2810:2928   */\n    tag_150:\n        /* \"#utility.yul\":2897:2921   */\n      tag_152\n        /* \"#utility.yul\":2915:2920   */\n      dup2\n        /* \"#utility.yul\":2897:2921   */\n      tag_153\n      jump\t// in\n    tag_152:\n        /* \"#utility.yul\":2892:2895   */\n      dup3\n        /* \"#utility.yul\":2885:2922   */\n      mstore\n        /* \"#utility.yul\":2810:2928   */\n      pop\n      pop\n      jump\t// out\n        /* \"#utility.yul\":2934:3156   */\n    tag_18:\n        /* \"#utility.yul\":3027:3031   */\n      0x00\n        /* \"#utility.yul\":3065:3067   */\n      0x20\n        /* \"#utility.yul\":3054:3063   */\n      dup3\n        /* \"#utility.yul\":3050:3068   */\n      add\n        /* \"#utility.yul\":3042:3068   */\n      swap1\n      pop\n        /* \"#utility.yul\":3078:3149   */\n      tag_155\n        /* \"#utility.yul\":3146:3147   */\n      0x00\n        /* \"#utility.yul\":3135:3144   */\n      dup4\n        /* \"#utility.yul\":3131:3148   */\n      add\n        /* \"#utility.yul\":3122:3128   */\n      dup5\n        /* \"#utility.yul\":3078:3149   */\n      tag_150\n      jump\t// in\n    tag_155:\n        /* \"#utility.yul\":2934:3156   */\n      swap3\n      swap2\n      pop\n      pop\n      jump\t// out\n        /* \"#utility.yul\":3162:3585   */\n    tag_14:\n        /* \"#utility.yul\":3303:3307   */\n      0x00\n        /* \"#utility.yul\":3341:3343   */\n      0x40\n        /* \"#utility.yul\":3330:3339   */\n      dup3\n        /* \"#utility.yul\":3326:3344   */\n      add\n        /* \"#utility.yul\":3318:3344   */\n      swap1\n      pop\n        /* \"#utility.yul\":3354:3425   */\n      tag_157\n        /* \"#utility.yul\":3422:3423   */\n      0x00\n        /* \"#utility.yul\":3411:3420   */\n      dup4\n        /* \"#utility.yul\":3407:3424   */\n      add\n        /* \"#utility.yul\":3398:3404   */\n      dup6\n        /* \"#utility.yul\":3354:3425   */\n      tag_150\n      jump\t// in\n    tag_157:\n        /* \"#utility.yul\":3472:3481   */\n      dup2\n        /* \"#utility.yul\":3466:3470   */\n      dup2\n        /* \"#utility.yul\":3462:3482   */\n      sub\n        /* \"#utility.yul\":3457:3459   */\n      0x20\n        /* \"#utility.yul\":3446:3455   */\n      dup4\n        /* \"#utility.yul\":3442:3460   */\n      add\n        /* \"#utility.yul\":3435:3483   */\n      mstore\n        /* \"#utility.yul\":3500:3578   */\n      tag_158\n        /* \"#utility.yul\":3573:3577   */\n      dup2\n        /* \"#utility.yul\":3564:3570   */\n      dup5\n        /* \"#utility.yul\":3500:3578   */\n      tag_140\n      jump\t// in\n    tag_158:\n        /* \"#utility.yul\":3492:3578   */\n      swap1\n      pop\n        /* \"#utility.yul\":3162:3585   */\n      swap4\n      swap3\n      pop\n      pop\n      pop\n      jump\t// out\n        /* \"#utility.yul\":3591:3720   */\n    tag_105:\n        /* \"#utility.yul\":3625:3631   */\n      0x00\n        /* \"#utility.yul\":3652:3672   */\n      tag_160\n      tag_161\n      jump\t// in\n    tag_160:\n        /* \"#utility.yul\":3642:3672   */\n      swap1\n      pop\n        /* \"#utility.yul\":3681:3714   */\n      tag_162\n        /* \"#utility.yul\":3709:3713   */\n      dup3\n        /* \"#utility.yul\":3701:3707   */\n      dup3\n        /* \"#utility.yul\":3681:3714   */\n      tag_163\n      jump\t// in\n    tag_162:\n        /* \"#utility.yul\":3591:3720   */\n      swap2\n      swap1\n      pop\n      jump\t// out\n        /* \"#utility.yul\":3726:3801   */\n    tag_161:\n        /* \"#utility.yul\":3759:3765   */\n      0x00\n        /* \"#utility.yul\":3792:3794   */\n      0x40\n        /* \"#utility.yul\":3786:3795   */\n      mload\n        /* \"#utility.yul\":3776:3795   */\n      swap1\n      pop\n        /* \"#utility.yul\":3726:3801   */\n      swap1\n      jump\t// out\n        /* \"#utility.yul\":3807:4115   */\n    tag_104:\n        /* \"#utility.yul\":3869:3873   */\n      0x00\n        /* \"#utility.yul\":3959:3977   */\n      0xffffffffffffffff\n        /* \"#utility.yul\":3951:3957   */\n      dup3\n        /* \"#utility.yul\":3948:3978   */\n      gt\n        /* \"#utility.yul\":3945:4001   */\n      iszero\n      tag_166\n      jumpi\n        /* \"#utility.yul\":3981:3999   */\n      tag_167\n      tag_168\n      jump\t// in\n    tag_167:\n        /* \"#utility.yul\":3945:4001   */\n    tag_166:\n        /* \"#utility.yul\":4019:4048   */\n      tag_169\n        /* \"#utility.yul\":4041:4047   */\n      dup3\n        /* \"#utility.yul\":4019:4048   */\n      tag_149\n      jump\t// in\n    tag_169:\n        /* \"#utility.yul\":4011:4048   */\n      swap1\n      pop\n        /* \"#utility.yul\":4103:4107   */\n      0x20\n        /* \"#utility.yul\":4097:4101   */\n      dup2\n        /* \"#utility.yul\":4093:4108   */\n      add\n        /* \"#utility.yul\":4085:4108   */\n      swap1\n      pop\n        /* \"#utility.yul\":3807:4115   */\n      swap2\n      swap1\n      pop\n      jump\t// out\n        /* \"#utility.yul\":4121:4220   */\n    tag_143:\n        /* \"#utility.yul\":4173:4179   */\n      0x00\n        /* \"#utility.yul\":4207:4212   */\n      dup2\n        /* \"#utility.yul\":4201:4213   */\n      mload\n        /* \"#utility.yul\":4191:4213   */\n      swap1\n      pop\n        /* \"#utility.yul\":4121:4220   */\n      swap2\n      swap1\n      pop\n      jump\t// out\n        /* \"#utility.yul\":4226:4395   */\n    tag_145:\n        /* \"#utility.yul\":4310:4321   */\n      0x00\n        /* \"#utility.yul\":4344:4350   */\n      dup3\n        /* \"#utility.yul\":4339:4342   */\n      dup3\n        /* \"#utility.yul\":4332:4351   */\n      mstore\n        /* \"#utility.yul\":4384:4388   */\n      0x20\n        /* \"#utility.yul\":4379:4382   */\n      dup3\n        /* \"#utility.yul\":4375:4389   */\n      add\n        /* \"#utility.yul\":4360:4389   */\n      swap1\n      pop\n        /* \"#utility.yul\":4226:4395   */\n      swap3\n      swap2\n      pop\n      pop\n      jump\t// out\n        /* \"#utility.yul\":4401:4478   */\n    tag_153:\n        /* \"#utility.yul\":4438:4445   */\n      0x00\n        /* \"#utility.yul\":4467:4472   */\n      dup2\n        /* \"#utility.yul\":4456:4472   */\n      swap1\n      pop\n        /* \"#utility.yul\":4401:4478   */\n      swap2\n      swap1\n      pop\n      jump\t// out\n        /* \"#utility.yul\":4484:4638   */\n    tag_110:\n        /* \"#utility.yul\":4568:4574   */\n      dup3\n        /* \"#utility.yul\":4563:4566   */\n      dup2\n        /* \"#utility.yul\":4558:4561   */\n      dup4\n        /* \"#utility.yul\":4545:4575   */\n      calldatacopy\n        /* \"#utility.yul\":4630:4631   */\n      0x00\n        /* \"#utility.yul\":4621:4627   */\n      dup4\n        /* \"#utility.yul\":4616:4619   */\n      dup4\n        /* \"#utility.yul\":4612:4628   */\n      add\n        /* \"#utility.yul\":4605:4632   */\n      mstore\n        /* \"#utility.yul\":4484:4638   */\n      pop\n      pop\n      pop\n      jump\t// out\n        /* \"#utility.yul\":4644:4951   */\n    tag_147:\n        /* \"#utility.yul\":4712:4713   */\n      0x00\n        /* \"#utility.yul\":4722:4835   */\n    tag_175:\n        /* \"#utility.yul\":4736:4742   */\n      dup4\n        /* \"#utility.yul\":4733:4734   */\n      dup2\n        /* \"#utility.yul\":4730:4743   */\n      lt\n        /* \"#utility.yul\":4722:4835   */\n      iszero\n      tag_177\n      jumpi\n        /* \"#utility.yul\":4821:4822   */\n      dup1\n        /* \"#utility.yul\":4816:4819   */\n      dup3\n        /* \"#utility.yul\":4812:4823   */\n      add\n        /* \"#utility.yul\":4806:4824   */\n      mload\n        /* \"#utility.yul\":4802:4803   */\n      dup2\n        /* \"#utility.yul\":4797:4800   */\n      dup5\n        /* \"#utility.yul\":4793:4804   */\n      add\n        /* \"#utility.yul\":4786:4825   */\n      mstore\n        /* \"#utility.yul\":4758:4760   */\n      0x20\n        /* \"#utility.yul\":4755:4756   */\n      dup2\n        /* \"#utility.yul\":4751:4761   */\n      add\n        /* \"#utility.yul\":4746:4761   */\n      swap1\n      pop\n        /* \"#utility.yul\":4722:4835   */\n      jump(tag_175)\n    tag_177:\n        /* \"#utility.yul\":4853:4859   */\n      dup4\n        /* \"#utility.yul\":4850:4851   */\n      dup2\n        /* \"#utility.yul\":4847:4860   */\n      gt\n        /* \"#utility.yul\":4844:4945   */\n      iszero\n      tag_178\n      jumpi\n        /* \"#utility.yul\":4933:4934   */\n      0x00\n        /* \"#utility.yul\":4924:4930   */\n      dup5\n        /* \"#utility.yul\":4919:4922   */\n      dup5\n        /* \"#utility.yul\":4915:4931   */\n      add\n        /* \"#utility.yul\":4908:4935   */\n      mstore\n        /* \"#utility.yul\":4844:4945   */\n    tag_178:\n        /* \"#utility.yul\":4693:4951   */\n      pop\n        /* \"#utility.yul\":4644:4951   */\n      pop\n      pop\n      pop\n      jump\t// out\n        /* \"#utility.yul\":4957:5277   */\n    tag_37:\n        /* \"#utility.yul\":5001:5007   */\n      0x00\n        /* \"#utility.yul\":5038:5039   */\n      0x02\n        /* \"#utility.yul\":5032:5036   */\n      dup3\n        /* \"#utility.yul\":5028:5040   */\n      div\n        /* \"#utility.yul\":5018:5040   */\n      swap1\n      pop\n        /* \"#utility.yul\":5085:5086   */\n      0x01\n        /* \"#utility.yul\":5079:5083   */\n      dup3\n        /* \"#utility.yul\":5075:5087   */\n      and\n        /* \"#utility.yul\":5106:5124   */\n      dup1\n        /* \"#utility.yul\":5096:5177   */\n      tag_180\n      jumpi\n        /* \"#utility.yul\":5162:5166   */\n      0x7f\n        /* \"#utility.yul\":5154:5160   */\n      dup3\n        /* \"#utility.yul\":5150:5167   */\n      and\n        /* \"#utility.yul\":5140:5167   */\n      swap2\n      pop\n        /* \"#utility.yul\":5096:5177   */\n    tag_180:\n        /* \"#utility.yul\":5224:5226   */\n      0x20\n        /* \"#utility.yul\":5216:5222   */\n      dup3\n        /* \"#utility.yul\":5213:5227   */\n      lt\n        /* \"#utility.yul\":5193:5211   */\n      dup2\n        /* \"#utility.yul\":5190:5228   */\n      eq\n        /* \"#utility.yul\":5187:5271   */\n      iszero\n      tag_181\n      jumpi\n        /* \"#utility.yul\":5243:5261   */\n      tag_182\n      tag_183\n      jump\t// in\n    tag_182:\n        /* \"#utility.yul\":5187:5271   */\n    tag_181:\n        /* \"#utility.yul\":5008:5277   */\n      pop\n        /* \"#utility.yul\":4957:5277   */\n      swap2\n      swap1\n      pop\n      jump\t// out\n        /* \"#utility.yul\":5283:5564   */\n    tag_163:\n        /* \"#utility.yul\":5366:5393   */\n      tag_185\n        /* \"#utility.yul\":5388:5392   */\n      dup3\n        /* \"#utility.yul\":5366:5393   */\n      tag_149\n      jump\t// in\n    tag_185:\n        /* \"#utility.yul\":5358:5364   */\n      dup2\n        /* \"#utility.yul\":5354:5394   */\n      add\n        /* \"#utility.yul\":5496:5502   */\n      dup2\n        /* \"#utility.yul\":5484:5494   */\n      dup2\n        /* \"#utility.yul\":5481:5503   */\n      lt\n        /* \"#utility.yul\":5460:5478   */\n      0xffffffffffffffff\n        /* \"#utility.yul\":5448:5458   */\n      dup3\n        /* \"#utility.yul\":5445:5479   */\n      gt\n        /* \"#utility.yul\":5442:5504   */\n      or\n        /* \"#utility.yul\":5439:5527   */\n      iszero\n      tag_186\n      jumpi\n        /* \"#utility.yul\":5507:5525   */\n      tag_187\n      tag_168\n      jump\t// in\n    tag_187:\n        /* \"#utility.yul\":5439:5527   */\n    tag_186:\n        /* \"#utility.yul\":5547:5557   */\n      dup1\n        /* \"#utility.yul\":5543:5545   */\n      0x40\n        /* \"#utility.yul\":5536:5558   */\n      mstore\n        /* \"#utility.yul\":5326:5564   */\n      pop\n        /* \"#utility.yul\":5283:5564   */\n      pop\n      pop\n      jump\t// out\n        /* \"#utility.yul\":5570:5803   */\n    tag_56:\n        /* \"#utility.yul\":5609:5612   */\n      0x00\n        /* \"#utility.yul\":5632:5656   */\n      tag_189\n        /* \"#utility.yul\":5650:5655   */\n      dup3\n        /* \"#utility.yul\":5632:5656   */\n      tag_153\n      jump\t// in\n    tag_189:\n        /* \"#utility.yul\":5623:5656   */\n      swap2\n      pop\n        /* \"#utility.yul\":5678:5744   */\n      0xffffffffffffffffffffffffffffffffffffffffffffffffffffffffffffffff\n        /* \"#utility.yul\":5671:5676   */\n      dup3\n        /* \"#utility.yul\":5668:5745   */\n      eq\n        /* \"#utility.yul\":5665:5768   */\n      iszero\n      tag_190\n      jumpi\n        /* \"#utility.yul\":5748:5766   */\n      tag_191\n      tag_192\n      jump\t// in\n    tag_191:\n        /* \"#utility.yul\":5665:5768   */\n    tag_190:\n        /* \"#utility.yul\":5795:5796   */\n      0x01\n        /* \"#utility.yul\":5788:5793   */\n      dup3\n        /* \"#utility.yul\":5784:5797   */\n      add\n        /* \"#utility.yul\":5777:5797   */\n      swap1\n      pop\n        /* \"#utility.yul\":5570:5803   */\n      swap2\n      swap1\n      pop\n      jump\t// out\n        /* \"#utility.yul\":5809:5989   */\n    tag_192:\n        /* \"#utility.yul\":5857:5934   */\n      0x4e487b7100000000000000000000000000000000000000000000000000000000\n        /* \"#utility.yul\":5854:5855   */\n      0x00\n        /* \"#utility.yul\":5847:5935   */\n      mstore\n        /* \"#utility.yul\":5954:5958   */\n      0x11\n        /* \"#utility.yul\":5951:5952   */\n      0x04\n        /* \"#utility.yul\":5944:5959   */\n      mstore\n        /* \"#utility.yul\":5978:5982   */\n      0x24\n        /* \"#utility.yul\":5975:5976   */\n      0x00\n        /* \"#utility.yul\":5968:5983   */\n      revert\n        /* \"#utility.yul\":5995:6175   */\n    tag_183:\n        /* \"#utility.yul\":6043:6120   */\n      0x4e487b7100000000000000000000000000000000000000000000000000000000\n        /* \"#utility.yul\":6040:6041   */\n      0x00\n        /* \"#utility.yul\":6033:6121   */\n      mstore\n        /* \"#utility.yul\":6140:6144   */\n      0x22\n        /* \"#utility.yul\":6137:6138   */\n      0x04\n        /* \"#utility.yul\":6130:6145   */\n      mstore\n        /* \"#utility.yul\":6164:6168   */\n      0x24\n        /* \"#utility.yul\":6161:6162   */\n      0x00\n        /* \"#utility.yul\":6154:6169   */\n      revert\n        /* \"#utility.yul\":6181:6361   */\n    tag_47:\n        /* \"#utility.yul\":6229:6306   */\n      0x4e487b7100000000000000000000000000000000000000000000000000000000\n        /* \"#utility.yul\":6226:6227   */\n      0x00\n        /* \"#utility.yul\":6219:6307   */\n      mstore\n        /* \"#utility.yul\":6326:6330   */\n      0x32\n        /* \"#utility.yul\":6323:6324   */\n      0x04\n        /* \"#utility.yul\":6316:6331   */\n      mstore\n        /* \"#utility.yul\":6350:6354   */\n      0x24\n        /* \"#utility.yul\":6347:6348   */\n      0x00\n        /* \"#utility.yul\":6340:6355   */\n      revert\n        /* \"#utility.yul\":6367:6547   */\n    tag_168:\n        /* \"#utility.yul\":6415:6492   */\n      0x4e487b7100000000000000000000000000000000000000000000000000000000\n        /* \"#utility.yul\":6412:6413   */\n      0x00\n        /* \"#utility.yul\":6405:6493   */\n      mstore\n        /* \"#utility.yul\":6512:6516   */\n      0x41\n        /* \"#utility.yul\":6509:6510   */\n      0x04\n        /* \"#utility.yul\":6502:6517   */\n      mstore\n        /* \"#utility.yul\":6536:6540   */\n      0x24\n        /* \"#utility.yul\":6533:6534   */\n      0x00\n        /* \"#utility.yul\":6526:6541   */\n      revert\n        /* \"#utility.yul\":6553:6670   */\n    tag_115:\n        /* \"#utility.yul\":6662:6663   */\n      0x00\n        /* \"#utility.yul\":6659:6660   */\n      dup1\n        /* \"#utility.yul\":6652:6664   */\n      revert\n        /* \"#utility.yul\":6676:6793   */\n    tag_108:\n        /* \"#utility.yul\":6785:6786   */\n      0x00\n        /* \"#utility.yul\":6782:6783   */\n      dup1\n        /* \"#utility.yul\":6775:6787   */\n      revert\n        /* \"#utility.yul\":6799:6916   */\n    tag_127:\n        /* \"#utility.yul\":6908:6909   */\n      0x00\n        /* \"#utility.yul\":6905:6906   */\n      dup1\n        /* \"#utility.yul\":6898:6910   */\n      revert\n        /* \"#utility.yul\":6922:7039   */\n    tag_124:\n        /* \"#utility.yul\":7031:7032   */\n      0x00\n        /* \"#utility.yul\":7028:7029   */\n      dup1\n        /* \"#utility.yul\":7021:7033   */\n      revert\n        /* \"#utility.yul\":7045:7147   */\n    tag_149:\n        /* \"#utility.yul\":7086:7092   */\n      0x00\n        /* \"#utility.yul\":7137:7139   */\n      0x1f\n        /* \"#utility.yul\":7133:7140   */\n      not\n        /* \"#utility.yul\":7128:7130   */\n      0x1f\n        /* \"#utility.yul\":7121:7126   */\n      dup4\n        /* \"#utility.yul\":7117:7131   */\n      add\n        /* \"#utility.yul\":7113:7141   */\n      and\n        /* \"#utility.yul\":7103:7141   */\n      swap1\n      pop\n        /* \"#utility.yul\":7045:7147   */\n      swap2\n      swap1\n      pop\n      jump\t// out\n        /* \"#utility.yul\":7153:7275   */\n    tag_120:\n        /* \"#utility.yul\":7226:7250   */\n      tag_203\n        /* \"#utility.yul\":7244:7249   */\n      dup2\n        /* \"#utility.yul\":7226:7250   */\n      tag_153\n      jump\t// in\n    tag_203:\n        /* \"#utility.yul\":7219:7224   */\n      dup2\n        /* \"#utility.yul\":7216:7251   */\n      eq\n        /* \"#utility.yul\":7206:7269   */\n      tag_204\n      jumpi\n        /* \"#utility.yul\":7265:7266   */\n      0x00\n        /* \"#utility.yul\":7262:7263   */\n      dup1\n        /* \"#utility.yul\":7255:7267   */\n      revert\n        /* \"#utility.yul\":7206:7269   */\n    tag_204:\n        /* \"#utility.yul\":7153:7275   */\n      pop\n      jump\t// out\n\n    auxdata: 0xa2646970667358221220bb4913faa547d81ac39e68fbc91b64e81c75ab7d9ca50388f857958d493ca27764736f6c63430008070033\n}\n",
				"bytecode": {
					"linkReferences": {},
					"object": "608060405234801561001057600080fd5b506109d9806100206000396000f3fe608060405234801561001057600080fd5b50600436106100625760003560e01c8063365b98b21461006757806361b8ce8c146100985780639d118770146100b6578063b6a46b3b146100d2578063ed2e5a97146100ee578063f745630f1461011f575b600080fd5b610081600480360381019061007c9190610625565b61013b565b60405161008f929190610711565b60405180910390f35b6100a06101f7565b6040516100ad91906106f6565b60405180910390f35b6100d060048036038101906100cb9190610625565b6101fd565b005b6100ec60048036038101906100e791906105dc565b61024b565b005b61010860048036038101906101039190610625565b6102d1565b604051610116929190610711565b60405180910390f35b61013960048036038101906101349190610652565b6103c3565b005b6000818154811061014b57600080fd5b9060005260206000209060020201600091509050806000015490806001018054610174906107ff565b80601f01602080910402602001604051908101604052809291908181526020018280546101a0906107ff565b80156101ed5780601f106101c2576101008083540402835291602001916101ed565b820191906000526020600020905b8154815290600101906020018083116101d057829003601f168201915b5050505050905082565b60015481565b60006102088261040f565b90506000818154811061021e5761021d610909565b5b90600052602060002090600202016000808201600090556001820160006102459190610474565b50505050565b6000604051806040016040528060015481526020018381525090806001815401808255809150506001900390600052602060002090600202016000909190919091506000820151816000015560208201518160010190805190602001906102b39291906104b4565b505050600160008154809291906102c990610862565b919050555050565b6000606060006102e08461040f565b9050600081815481106102f6576102f5610909565b5b9060005260206000209060020201600001546000828154811061031c5761031b610909565b5b9060005260206000209060020201600101808054610339906107ff565b80601f0160208091040260200160405190810160405280929190818152602001828054610365906107ff565b80156103b25780601f10610387576101008083540402835291602001916103b2565b820191906000526020600020905b81548152906001019060200180831161039557829003601f168201915b505050505090509250925050915091565b60006103ce8361040f565b905081600082815481106103e5576103e4610909565b5b906000526020600020906002020160010190805190602001906104099291906104b4565b50505050565b600080600090505b60008054905081101561046d57826000828154811061043957610438610909565b5b906000526020600020906002020160000154141561045a578091505061046f565b808061046590610862565b915050610417565b505b919050565b508054610480906107ff565b6000825580601f1061049257506104b1565b601f0160209004906000526020600020908101906104b0919061053a565b5b50565b8280546104c0906107ff565b90600052602060002090601f0160209004810192826104e25760008555610529565b82601f106104fb57805160ff1916838001178555610529565b82800160010185558215610529579182015b8281111561052857825182559160200191906001019061050d565b5b509050610536919061053a565b5090565b5b8082111561055357600081600090555060010161053b565b5090565b600061056a61056584610766565b610741565b9050828152602081018484840111156105865761058561096c565b5b6105918482856107bd565b509392505050565b600082601f8301126105ae576105ad610967565b5b81356105be848260208601610557565b91505092915050565b6000813590506105d68161098c565b92915050565b6000602082840312156105f2576105f1610976565b5b600082013567ffffffffffffffff8111156106105761060f610971565b5b61061c84828501610599565b91505092915050565b60006020828403121561063b5761063a610976565b5b6000610649848285016105c7565b91505092915050565b6000806040838503121561066957610668610976565b5b6000610677858286016105c7565b925050602083013567ffffffffffffffff81111561069857610697610971565b5b6106a485828601610599565b9150509250929050565b60006106b982610797565b6106c381856107a2565b93506106d38185602086016107cc565b6106dc8161097b565b840191505092915050565b6106f0816107b3565b82525050565b600060208201905061070b60008301846106e7565b92915050565b600060408201905061072660008301856106e7565b818103602083015261073881846106ae565b90509392505050565b600061074b61075c565b90506107578282610831565b919050565b6000604051905090565b600067ffffffffffffffff82111561078157610780610938565b5b61078a8261097b565b9050602081019050919050565b600081519050919050565b600082825260208201905092915050565b6000819050919050565b82818337600083830152505050565b60005b838110156107ea5780820151818401526020810190506107cf565b838111156107f9576000848401525b50505050565b6000600282049050600182168061081757607f821691505b6020821081141561082b5761082a6108da565b5b50919050565b61083a8261097b565b810181811067ffffffffffffffff8211171561085957610858610938565b5b80604052505050565b600061086d826107b3565b91507fffffffffffffffffffffffffffffffffffffffffffffffffffffffffffffffff8214156108a05761089f6108ab565b5b600182019050919050565b7f4e487b7100000000000000000000000000000000000000000000000000000000600052601160045260246000fd5b7f4e487b7100000000000000000000000000000000000000000000000000000000600052602260045260246000fd5b7f4e487b7100000000000000000000000000000000000000000000000000000000600052603260045260246000fd5b7f4e487b7100000000000000000000000000000000000000000000000000000000600052604160045260246000fd5b600080fd5b600080fd5b600080fd5b600080fd5b6000601f19601f8301169050919050565b610995816107b3565b81146109a057600080fd5b5056fea2646970667358221220bb4913faa547d81ac39e68fbc91b64e81c75ab7d9ca50388f857958d493ca27764736f6c63430008070033",
					"opcodes": "PUSH1 0x80 PUSH1 0x40 MSTORE CALLVALUE DUP1 ISZERO PUSH2 0x10 JUMPI PUSH1 0x0 DUP1 REVERT JUMPDEST POP PUSH2 0x9D9 DUP1 PUSH2 0x20 PUSH1 0x0 CODECOPY PUSH1 0x0 RETURN INVALID PUSH1 0x80 PUSH1 0x40 MSTORE CALLVALUE DUP1 ISZERO PUSH2 0x10 JUMPI PUSH1 0x0 DUP1 REVERT JUMPDEST POP PUSH1 0x4 CALLDATASIZE LT PUSH2 0x62 JUMPI PUSH1 0x0 CALLDATALOAD PUSH1 0xE0 SHR DUP1 PUSH4 0x365B98B2 EQ PUSH2 0x67 JUMPI DUP1 PUSH4 0x61B8CE8C EQ PUSH2 0x98 JUMPI DUP1 PUSH4 0x9D118770 EQ PUSH2 0xB6 JUMPI DUP1 PUSH4 0xB6A46B3B EQ PUSH2 0xD2 JUMPI DUP1 PUSH4 0xED2E5A97 EQ PUSH2 0xEE JUMPI DUP1 PUSH4 0xF745630F EQ PUSH2 0x11F JUMPI JUMPDEST PUSH1 0x0 DUP1 REVERT JUMPDEST PUSH2 0x81 PUSH1 0x4 DUP1 CALLDATASIZE SUB DUP2 ADD SWAP1 PUSH2 0x7C SWAP2 SWAP1 PUSH2 0x625 JUMP JUMPDEST PUSH2 0x13B JUMP JUMPDEST PUSH1 0x40 MLOAD PUSH2 0x8F SWAP3 SWAP2 SWAP1 PUSH2 0x711 JUMP JUMPDEST PUSH1 0x40 MLOAD DUP1 SWAP2 SUB SWAP1 RETURN JUMPDEST PUSH2 0xA0 PUSH2 0x1F7 JUMP JUMPDEST PUSH1 0x40 MLOAD PUSH2 0xAD SWAP2 SWAP1 PUSH2 0x6F6 JUMP JUMPDEST PUSH1 0x40 MLOAD DUP1 SWAP2 SUB SWAP1 RETURN JUMPDEST PUSH2 0xD0 PUSH1 0x4 DUP1 CALLDATASIZE SUB DUP2 ADD SWAP1 PUSH2 0xCB SWAP2 SWAP1 PUSH2 0x625 JUMP JUMPDEST PUSH2 0x1FD JUMP JUMPDEST STOP JUMPDEST PUSH2 0xEC PUSH1 0x4 DUP1 CALLDATASIZE SUB DUP2 ADD SWAP1 PUSH2 0xE7 SWAP2 SWAP1 PUSH2 0x5DC JUMP JUMPDEST PUSH2 0x24B JUMP JUMPDEST STOP JUMPDEST PUSH2 0x108 PUSH1 0x4 DUP1 CALLDATASIZE SUB DUP2 ADD SWAP1 PUSH2 0x103 SWAP2 SWAP1 PUSH2 0x625 JUMP JUMPDEST PUSH2 0x2D1 JUMP JUMPDEST PUSH1 0x40 MLOAD PUSH2 0x116 SWAP3 SWAP2 SWAP1 PUSH2 0x711 JUMP JUMPDEST PUSH1 0x40 MLOAD DUP1 SWAP2 SUB SWAP1 RETURN JUMPDEST PUSH2 0x139 PUSH1 0x4 DUP1 CALLDATASIZE SUB DUP2 ADD SWAP1 PUSH2 0x134 SWAP2 SWAP1 PUSH2 0x652 JUMP JUMPDEST PUSH2 0x3C3 JUMP JUMPDEST STOP JUMPDEST PUSH1 0x0 DUP2 DUP2 SLOAD DUP2 LT PUSH2 0x14B JUMPI PUSH1 0x0 DUP1 REVERT JUMPDEST SWAP1 PUSH1 0x0 MSTORE PUSH1 0x20 PUSH1 0x0 KECCAK256 SWAP1 PUSH1 0x2 MUL ADD PUSH1 0x0 SWAP2 POP SWAP1 POP DUP1 PUSH1 0x0 ADD SLOAD SWAP1 DUP1 PUSH1 0x1 ADD DUP1 SLOAD PUSH2 0x174 SWAP1 PUSH2 0x7FF JUMP JUMPDEST DUP1 PUSH1 0x1F ADD PUSH1 0x20 DUP1 SWAP2 DIV MUL PUSH1 0x20 ADD PUSH1 0x40 MLOAD SWAP1 DUP2 ADD PUSH1 0x40 MSTORE DUP1 SWAP3 SWAP2 SWAP1 DUP2 DUP2 MSTORE PUSH1 0x20 ADD DUP3 DUP1 SLOAD PUSH2 0x1A0 SWAP1 PUSH2 0x7FF JUMP JUMPDEST DUP1 ISZERO PUSH2 0x1ED JUMPI DUP1 PUSH1 0x1F LT PUSH2 0x1C2 JUMPI PUSH2 0x100 DUP1 DUP4 SLOAD DIV MUL DUP4 MSTORE SWAP2 PUSH1 0x20 ADD SWAP2 PUSH2 0x1ED JUMP JUMPDEST DUP3 ADD SWAP2 SWAP1 PUSH1 0x0 MSTORE PUSH1 0x20 PUSH1 0x0 KECCAK256 SWAP1 JUMPDEST DUP2 SLOAD DUP2 MSTORE SWAP1 PUSH1 0x1 ADD SWAP1 PUSH1 0x20 ADD DUP1 DUP4 GT PUSH2 0x1D0 JUMPI DUP3 SWAP1 SUB PUSH1 0x1F AND DUP3 ADD SWAP2 JUMPDEST POP POP POP POP POP SWAP1 POP DUP3 JUMP JUMPDEST PUSH1 0x1 SLOAD DUP2 JUMP JUMPDEST PUSH1 0x0 PUSH2 0x208 DUP3 PUSH2 0x40F JUMP JUMPDEST SWAP1 POP PUSH1 0x0 DUP2 DUP2 SLOAD DUP2 LT PUSH2 0x21E JUMPI PUSH2 0x21D PUSH2 0x909 JUMP JUMPDEST JUMPDEST SWAP1 PUSH1 0x0 MSTORE PUSH1 0x20 PUSH1 0x0 KECCAK256 SWAP1 PUSH1 0x2 MUL ADD PUSH1 0x0 DUP1 DUP3 ADD PUSH1 0x0 SWAP1 SSTORE PUSH1 0x1 DUP3 ADD PUSH1 0x0 PUSH2 0x245 SWAP2 SWAP1 PUSH2 0x474 JUMP JUMPDEST POP POP POP POP JUMP JUMPDEST PUSH1 0x0 PUSH1 0x40 MLOAD DUP1 PUSH1 0x40 ADD PUSH1 0x40 MSTORE DUP1 PUSH1 0x1 SLOAD DUP2 MSTORE PUSH1 0x20 ADD DUP4 DUP2 MSTORE POP SWAP1 DUP1 PUSH1 0x1 DUP2 SLOAD ADD DUP1 DUP3 SSTORE DUP1 SWAP2 POP POP PUSH1 0x1 SWAP1 SUB SWAP1 PUSH1 0x0 MSTORE PUSH1 0x20 PUSH1 0x0 KECCAK256 SWAP1 PUSH1 0x2 MUL ADD PUSH1 0x0 SWAP1 SWAP2 SWAP1 SWAP2 SWAP1 SWAP2 POP PUSH1 0x0 DUP3 ADD MLOAD DUP2 PUSH1 0x0 ADD SSTORE PUSH1 0x20 DUP3 ADD MLOAD DUP2 PUSH1 0x1 ADD SWAP1 DUP1 MLOAD SWAP1 PUSH1 0x20 ADD SWAP1 PUSH2 0x2B3 SWAP3 SWAP2 SWAP1 PUSH2 0x4B4 JUMP JUMPDEST POP POP POP PUSH1 0x1 PUSH1 0x0 DUP2 SLOAD DUP1 SWAP3 SWAP2 SWAP1 PUSH2 0x2C9 SWAP1 PUSH2 0x862 JUMP JUMPDEST SWAP2 SWAP1 POP SSTORE POP POP JUMP JUMPDEST PUSH1 0x0 PUSH1 0x60 PUSH1 0x0 PUSH2 0x2E0 DUP5 PUSH2 0x40F JUMP JUMPDEST SWAP1 POP PUSH1 0x0 DUP2 DUP2 SLOAD DUP2 LT PUSH2 0x2F6 JUMPI PUSH2 0x2F5 PUSH2 0x909 JUMP JUMPDEST JUMPDEST SWAP1 PUSH1 0x0 MSTORE PUSH1 0x20 PUSH1 0x0 KECCAK256 SWAP1 PUSH1 0x2 MUL ADD PUSH1 0x0 ADD SLOAD PUSH1 0x0 DUP3 DUP2 SLOAD DUP2 LT PUSH2 0x31C JUMPI PUSH2 0x31B PUSH2 0x909 JUMP JUMPDEST JUMPDEST SWAP1 PUSH1 0x0 MSTORE PUSH1 0x20 PUSH1 0x0 KECCAK256 SWAP1 PUSH1 0x2 MUL ADD PUSH1 0x1 ADD DUP1 DUP1 SLOAD PUSH2 0x339 SWAP1 PUSH2 0x7FF JUMP JUMPDEST DUP1 PUSH1 0x1F ADD PUSH1 0x20 DUP1 SWAP2 DIV MUL PUSH1 0x20 ADD PUSH1 0x40 MLOAD SWAP1 DUP2 ADD PUSH1 0x40 MSTORE DUP1 SWAP3 SWAP2 SWAP1 DUP2 DUP2 MSTORE PUSH1 0x20 ADD DUP3 DUP1 SLOAD PUSH2 0x365 SWAP1 PUSH2 0x7FF JUMP JUMPDEST DUP1 ISZERO PUSH2 0x3B2 JUMPI DUP1 PUSH1 0x1F LT PUSH2 0x387 JUMPI PUSH2 0x100 DUP1 DUP4 SLOAD DIV MUL DUP4 MSTORE SWAP2 PUSH1 0x20 ADD SWAP2 PUSH2 0x3B2 JUMP JUMPDEST DUP3 ADD SWAP2 SWAP1 PUSH1 0x0 MSTORE PUSH1 0x20 PUSH1 0x0 KECCAK256 SWAP1 JUMPDEST DUP2 SLOAD DUP2 MSTORE SWAP1 PUSH1 0x1 ADD SWAP1 PUSH1 0x20 ADD DUP1 DUP4 GT PUSH2 0x395 JUMPI DUP3 SWAP1 SUB PUSH1 0x1F AND DUP3 ADD SWAP2 JUMPDEST POP POP POP POP POP SWAP1 POP SWAP3 POP SWAP3 POP POP SWAP2 POP SWAP2 JUMP JUMPDEST PUSH1 0x0 PUSH2 0x3CE DUP4 PUSH2 0x40F JUMP JUMPDEST SWAP1 POP DUP2 PUSH1 0x0 DUP3 DUP2 SLOAD DUP2 LT PUSH2 0x3E5 JUMPI PUSH2 0x3E4 PUSH2 0x909 JUMP JUMPDEST JUMPDEST SWAP1 PUSH1 0x0 MSTORE PUSH1 0x20 PUSH1 0x0 KECCAK256 SWAP1 PUSH1 0x2 MUL ADD PUSH1 0x1 ADD SWAP1 DUP1 MLOAD SWAP1 PUSH1 0x20 ADD SWAP1 PUSH2 0x409 SWAP3 SWAP2 SWAP1 PUSH2 0x4B4 JUMP JUMPDEST POP POP POP POP JUMP JUMPDEST PUSH1 0x0 DUP1 PUSH1 0x0 SWAP1 POP JUMPDEST PUSH1 0x0 DUP1 SLOAD SWAP1 POP DUP2 LT ISZERO PUSH2 0x46D JUMPI DUP3 PUSH1 0x0 DUP3 DUP2 SLOAD DUP2 LT PUSH2 0x439 JUMPI PUSH2 0x438 PUSH2 0x909 JUMP JUMPDEST JUMPDEST SWAP1 PUSH1 0x0 MSTORE PUSH1 0x20 PUSH1 0x0 KECCAK256 SWAP1 PUSH1 0x2 MUL ADD PUSH1 0x0 ADD SLOAD EQ ISZERO PUSH2 0x45A JUMPI DUP1 SWAP2 POP POP PUSH2 0x46F JUMP JUMPDEST DUP1 DUP1 PUSH2 0x465 SWAP1 PUSH2 0x862 JUMP JUMPDEST SWAP2 POP POP PUSH2 0x417 JUMP JUMPDEST POP JUMPDEST SWAP2 SWAP1 POP JUMP JUMPDEST POP DUP1 SLOAD PUSH2 0x480 SWAP1 PUSH2 0x7FF JUMP JUMPDEST PUSH1 0x0 DUP3 SSTORE DUP1 PUSH1 0x1F LT PUSH2 0x492 JUMPI POP PUSH2 0x4B1 JUMP JUMPDEST PUSH1 0x1F ADD PUSH1 0x20 SWAP1 DIV SWAP1 PUSH1 0x0 MSTORE PUSH1 0x20 PUSH1 0x0 KECCAK256 SWAP1 DUP2 ADD SWAP1 PUSH2 0x4B0 SWAP2 SWAP1 PUSH2 0x53A JUMP JUMPDEST JUMPDEST POP JUMP JUMPDEST DUP3 DUP1 SLOAD PUSH2 0x4C0 SWAP1 PUSH2 0x7FF JUMP JUMPDEST SWAP1 PUSH1 0x0 MSTORE PUSH1 0x20 PUSH1 0x0 KECCAK256 SWAP1 PUSH1 0x1F ADD PUSH1 0x20 SWAP1 DIV DUP2 ADD SWAP3 DUP3 PUSH2 0x4E2 JUMPI PUSH1 0x0 DUP6 SSTORE PUSH2 0x529 JUMP JUMPDEST DUP3 PUSH1 0x1F LT PUSH2 0x4FB JUMPI DUP1 MLOAD PUSH1 0xFF NOT AND DUP4 DUP1 ADD OR DUP6 SSTORE PUSH2 0x529 JUMP JUMPDEST DUP3 DUP1 ADD PUSH1 0x1 ADD DUP6 SSTORE DUP3 ISZERO PUSH2 0x529 JUMPI SWAP2 DUP3 ADD JUMPDEST DUP3 DUP2 GT ISZERO PUSH2 0x528 JUMPI DUP3 MLOAD DUP3 SSTORE SWAP2 PUSH1 0x20 ADD SWAP2 SWAP1 PUSH1 0x1 ADD SWAP1 PUSH2 0x50D JUMP JUMPDEST JUMPDEST POP SWAP1 POP PUSH2 0x536 SWAP2 SWAP1 PUSH2 0x53A JUMP JUMPDEST POP SWAP1 JUMP JUMPDEST JUMPDEST DUP1 DUP3 GT ISZERO PUSH2 0x553 JUMPI PUSH1 0x0 DUP2 PUSH1 0x0 SWAP1 SSTORE POP PUSH1 0x1 ADD PUSH2 0x53B JUMP JUMPDEST POP SWAP1 JUMP JUMPDEST PUSH1 0x0 PUSH2 0x56A PUSH2 0x565 DUP5 PUSH2 0x766 JUMP JUMPDEST PUSH2 0x741 JUMP JUMPDEST SWAP1 POP DUP3 DUP2 MSTORE PUSH1 0x20 DUP2 ADD DUP5 DUP5 DUP5 ADD GT ISZERO PUSH2 0x586 JUMPI PUSH2 0x585 PUSH2 0x96C JUMP JUMPDEST JUMPDEST PUSH2 0x591 DUP5 DUP3 DUP6 PUSH2 0x7BD JUMP JUMPDEST POP SWAP4 SWAP3 POP POP POP JUMP JUMPDEST PUSH1 0x0 DUP3 PUSH1 0x1F DUP4 ADD SLT PUSH2 0x5AE JUMPI PUSH2 0x5AD PUSH2 0x967 JUMP JUMPDEST JUMPDEST DUP2 CALLDATALOAD PUSH2 0x5BE DUP5 DUP3 PUSH1 0x20 DUP7 ADD PUSH2 0x557 JUMP JUMPDEST SWAP2 POP POP SWAP3 SWAP2 POP POP JUMP JUMPDEST PUSH1 0x0 DUP2 CALLDATALOAD SWAP1 POP PUSH2 0x5D6 DUP2 PUSH2 0x98C JUMP JUMPDEST SWAP3 SWAP2 POP POP JUMP JUMPDEST PUSH1 0x0 PUSH1 0x20 DUP3 DUP5 SUB SLT ISZERO PUSH2 0x5F2 JUMPI PUSH2 0x5F1 PUSH2 0x976 JUMP JUMPDEST JUMPDEST PUSH1 0x0 DUP3 ADD CALLDATALOAD PUSH8 0xFFFFFFFFFFFFFFFF DUP2 GT ISZERO PUSH2 0x610 JUMPI PUSH2 0x60F PUSH2 0x971 JUMP JUMPDEST JUMPDEST PUSH2 0x61C DUP5 DUP3 DUP6 ADD PUSH2 0x599 JUMP JUMPDEST SWAP2 POP POP SWAP3 SWAP2 POP POP JUMP JUMPDEST PUSH1 0x0 PUSH1 0x20 DUP3 DUP5 SUB SLT ISZERO PUSH2 0x63B JUMPI PUSH2 0x63A PUSH2 0x976 JUMP JUMPDEST JUMPDEST PUSH1 0x0 PUSH2 0x649 DUP5 DUP3 DUP6 ADD PUSH2 0x5C7 JUMP JUMPDEST SWAP2 POP POP SWAP3 SWAP2 POP POP JUMP JUMPDEST PUSH1 0x0 DUP1 PUSH1 0x40 DUP4 DUP6 SUB SLT ISZERO PUSH2 0x669 JUMPI PUSH2 0x668 PUSH2 0x976 JUMP JUMPDEST JUMPDEST PUSH1 0x0 PUSH2 0x677 DUP6 DUP3 DUP7 ADD PUSH2 0x5C7 JUMP JUMPDEST SWAP3 POP POP PUSH1 0x20 DUP4 ADD CALLDATALOAD PUSH8 0xFFFFFFFFFFFFFFFF DUP2 GT ISZERO PUSH2 0x698 JUMPI PUSH2 0x697 PUSH2 0x971 JUMP JUMPDEST JUMPDEST PUSH2 0x6A4 DUP6 DUP3 DUP7 ADD PUSH2 0x599 JUMP JUMPDEST SWAP2 POP POP SWAP3 POP SWAP3 SWAP1 POP JUMP JUMPDEST PUSH1 0x0 PUSH2 0x6B9 DUP3 PUSH2 0x797 JUMP JUMPDEST PUSH2 0x6C3 DUP2 DUP6 PUSH2 0x7A2 JUMP JUMPDEST SWAP4 POP PUSH2 0x6D3 DUP2 DUP6 PUSH1 0x20 DUP7 ADD PUSH2 0x7CC JUMP JUMPDEST PUSH2 0x6DC DUP2 PUSH2 0x97B JUMP JUMPDEST DUP5 ADD SWAP2 POP POP SWAP3 SWAP2 POP POP JUMP JUMPDEST PUSH2 0x6F0 DUP2 PUSH2 0x7B3 JUMP JUMPDEST DUP3 MSTORE POP POP JUMP JUMPDEST PUSH1 0x0 PUSH1 0x20 DUP3 ADD SWAP1 POP PUSH2 0x70B PUSH1 0x0 DUP4 ADD DUP5 PUSH2 0x6E7 JUMP JUMPDEST SWAP3 SWAP2 POP POP JUMP JUMPDEST PUSH1 0x0 PUSH1 0x40 DUP3 ADD SWAP1 POP PUSH2 0x726 PUSH1 0x0 DUP4 ADD DUP6 PUSH2 0x6E7 JUMP JUMPDEST DUP2 DUP2 SUB PUSH1 0x20 DUP4 ADD MSTORE PUSH2 0x738 DUP2 DUP5 PUSH2 0x6AE JUMP JUMPDEST SWAP1 POP SWAP4 SWAP3 POP POP POP JUMP JUMPDEST PUSH1 0x0 PUSH2 0x74B PUSH2 0x75C JUMP JUMPDEST SWAP1 POP PUSH2 0x757 DUP3 DUP3 PUSH2 0x831 JUMP JUMPDEST SWAP2 SWAP1 POP JUMP JUMPDEST PUSH1 0x0 PUSH1 0x40 MLOAD SWAP1 POP SWAP1 JUMP JUMPDEST PUSH1 0x0 PUSH8 0xFFFFFFFFFFFFFFFF DUP3 GT ISZERO PUSH2 0x781 JUMPI PUSH2 0x780 PUSH2 0x938 JUMP JUMPDEST JUMPDEST PUSH2 0x78A DUP3 PUSH2 0x97B JUMP JUMPDEST SWAP1 POP PUSH1 0x20 DUP2 ADD SWAP1 POP SWAP2 SWAP1 POP JUMP JUMPDEST PUSH1 0x0 DUP2 MLOAD SWAP1 POP SWAP2 SWAP1 POP JUMP JUMPDEST PUSH1 0x0 DUP3 DUP3 MSTORE PUSH1 0x20 DUP3 ADD SWAP1 POP SWAP3 SWAP2 POP POP JUMP JUMPDEST PUSH1 0x0 DUP2 SWAP1 POP SWAP2 SWAP1 POP JUMP JUMPDEST DUP3 DUP2 DUP4 CALLDATACOPY PUSH1 0x0 DUP4 DUP4 ADD MSTORE POP POP POP JUMP JUMPDEST PUSH1 0x0 JUMPDEST DUP4 DUP2 LT ISZERO PUSH2 0x7EA JUMPI DUP1 DUP3 ADD MLOAD DUP2 DUP5 ADD MSTORE PUSH1 0x20 DUP2 ADD SWAP1 POP PUSH2 0x7CF JUMP JUMPDEST DUP4 DUP2 GT ISZERO PUSH2 0x7F9 JUMPI PUSH1 0x0 DUP5 DUP5 ADD MSTORE JUMPDEST POP POP POP POP JUMP JUMPDEST PUSH1 0x0 PUSH1 0x2 DUP3 DIV SWAP1 POP PUSH1 0x1 DUP3 AND DUP1 PUSH2 0x817 JUMPI PUSH1 0x7F DUP3 AND SWAP2 POP JUMPDEST PUSH1 0x20 DUP3 LT DUP2 EQ ISZERO PUSH2 0x82B JUMPI PUSH2 0x82A PUSH2 0x8DA JUMP JUMPDEST JUMPDEST POP SWAP2 SWAP1 POP JUMP JUMPDEST PUSH2 0x83A DUP3 PUSH2 0x97B JUMP JUMPDEST DUP2 ADD DUP2 DUP2 LT PUSH8 0xFFFFFFFFFFFFFFFF DUP3 GT OR ISZERO PUSH2 0x859 JUMPI PUSH2 0x858 PUSH2 0x938 JUMP JUMPDEST JUMPDEST DUP1 PUSH1 0x40 MSTORE POP POP POP JUMP JUMPDEST PUSH1 0x0 PUSH2 0x86D DUP3 PUSH2 0x7B3 JUMP JUMPDEST SWAP2 POP PUSH32 0xFFFFFFFFFFFFFFFFFFFFFFFFFFFFFFFFFFFFFFFFFFFFFFFFFFFFFFFFFFFFFFFF DUP3 EQ ISZERO PUSH2 0x8A0 JUMPI PUSH2 0x89F PUSH2 0x8AB JUMP JUMPDEST JUMPDEST PUSH1 0x1 DUP3 ADD SWAP1 POP SWAP2 SWAP1 POP JUMP JUMPDEST PUSH32 0x4E487B7100000000000000000000000000000000000000000000000000000000 PUSH1 0x0 MSTORE PUSH1 0x11 PUSH1 0x4 MSTORE PUSH1 0x24 PUSH1 0x0 REVERT JUMPDEST PUSH32 0x4E487B7100000000000000000000000000000000000000000000000000000000 PUSH1 0x0 MSTORE PUSH1 0x22 PUSH1 0x4 MSTORE PUSH1 0x24 PUSH1 0x0 REVERT JUMPDEST PUSH32 0x4E487B7100000000000000000000000000000000000000000000000000000000 PUSH1 0x0 MSTORE PUSH1 0x32 PUSH1 0x4 MSTORE PUSH1 0x24 PUSH1 0x0 REVERT JUMPDEST PUSH32 0x4E487B7100000000000000000000000000000000000000000000000000000000 PUSH1 0x0 MSTORE PUSH1 0x41 PUSH1 0x4 MSTORE PUSH1 0x24 PUSH1 0x0 REVERT JUMPDEST PUSH1 0x0 DUP1 REVERT JUMPDEST PUSH1 0x0 DUP1 REVERT JUMPDEST PUSH1 0x0 DUP1 REVERT JUMPDEST PUSH1 0x0 DUP1 REVERT JUMPDEST PUSH1 0x0 PUSH1 0x1F NOT PUSH1 0x1F DUP4 ADD AND SWAP1 POP SWAP2 SWAP1 POP JUMP JUMPDEST PUSH2 0x995 DUP2 PUSH2 0x7B3 JUMP JUMPDEST DUP2 EQ PUSH2 0x9A0 JUMPI PUSH1 0x0 DUP1 REVERT JUMPDEST POP JUMP INVALID LOG2 PUSH5 0x6970667358 0x22 SLT KECCAK256 0xBB 0x49 SGT STATICCALL 0xA5 SELFBALANCE 0xD8 BYTE 0xC3 SWAP15 PUSH9 0xFBC91B64E81C75AB7D SWAP13 0xA5 SUB DUP9 0xF8 JUMPI SWAP6 DUP14 0x49 EXTCODECOPY LOG2 PUSH24 0x64736F6C6343000807003300000000000000000000000000 "
				},
				"gasEstimates": {
					"creation": {
						"codeDepositCost": "504200",
						"executionCost": "537",
						"totalCost": "504737"
					},
					"external": {
						"create(string)": "infinite",
						"destroy(uint256)": "infinite",
						"nextId()": "2429",
						"read(uint256)": "infinite",
						"update(uint256,string)": "infinite",
						"users(uint256)": "infinite"
					},
					"internal": {
						"find(uint256)": "infinite"
					}
				},
				"methodIdentifiers": {
					"create(string)": "b6a46b3b",
					"destroy(uint256)": "9d118770",
					"nextId()": "61b8ce8c",
					"read(uint256)": "ed2e5a97",
					"update(uint256,string)": "f745630f",
					"users(uint256)": "365b98b2"
				}
			},
			"storageLayout": {
				"storage": [
					{
						"astId": 10,
						"contract": "contracts/Users.sol:UserContract",
						"label": "users",
						"offset": 0,
						"slot": "0",
						"type": "t_array(t_struct(User)6_storage)dyn_storage"
					},
					{
						"astId": 12,
						"contract": "contracts/Users.sol:UserContract",
						"label": "nextId",
						"offset": 0,
						"slot": "1",
						"type": "t_uint256"
					}
				],
				"types": {
					"t_array(t_struct(User)6_storage)dyn_storage": {
						"base": "t_struct(User)6_storage",
						"encoding": "dynamic_array",
						"label": "struct UserContract.User[]",
						"numberOfBytes": "32"
					},
					"t_string_storage": {
						"encoding": "bytes",
						"label": "string",
						"numberOfBytes": "32"
					},
					"t_struct(User)6_storage": {
						"encoding": "inplace",
						"label": "struct UserContract.User",
						"members": [
							{
								"astId": 3,
								"contract": "contracts/Users.sol:UserContract",
								"label": "id",
								"offset": 0,
								"slot": "0",
								"type": "t_uint256"
							},
							{
								"astId": 5,
								"contract": "contracts/Users.sol:UserContract",
								"label": "name",
								"offset": 0,
								"slot": "1",
								"type": "t_string_storage"
							}
						],
						"numberOfBytes": "64"
					},
					"t_uint256": {
						"encoding": "inplace",
						"label": "uint256",
						"numberOfBytes": "32"
					}
				}
			},
			"userdoc": {
				"kind": "user",
				"methods": {},
				"version": 1
			}
		}
	}
}